{
  "_format": "hh-sol-artifact-1",
  "contractName": "MessagingPlatform",
  "sourceName": "contracts/MessagingPlatform.sol",
  "abi": [
    {
      "inputs": [
        {
          "internalType": "string",
          "name": "_message",
          "type": "string"
        }
      ],
      "stateMutability": "nonpayable",
      "type": "constructor"
    },
    {
      "inputs": [],
      "name": "getReceivedMessages",
      "outputs": [
        {
          "internalType": "bytes32[]",
          "name": "",
          "type": "bytes32[]"
        }
      ],
      "stateMutability": "view",
      "type": "function"
    },
    {
      "inputs": [],
      "name": "getSentMessages",
      "outputs": [
        {
          "internalType": "bytes32[]",
          "name": "",
          "type": "bytes32[]"
        }
      ],
      "stateMutability": "view",
      "type": "function"
    },
    {
      "inputs": [
        {
          "internalType": "bytes32",
          "name": "",
          "type": "bytes32"
        }
      ],
      "name": "messages",
      "outputs": [
        {
          "internalType": "address",
          "name": "sender",
          "type": "address"
        },
        {
          "internalType": "address",
          "name": "recipient",
          "type": "address"
        },
        {
          "internalType": "string",
          "name": "content",
          "type": "string"
        },
        {
          "internalType": "uint256",
          "name": "timestamp",
          "type": "uint256"
        }
      ],
      "stateMutability": "view",
      "type": "function"
    },
    {
      "inputs": [
        {
          "internalType": "address",
          "name": "",
          "type": "address"
        },
        {
          "internalType": "uint256",
          "name": "",
          "type": "uint256"
        }
      ],
      "name": "receivedMessages",
      "outputs": [
        {
          "internalType": "bytes32",
          "name": "",
          "type": "bytes32"
        }
      ],
      "stateMutability": "view",
      "type": "function"
    },
    {
      "inputs": [
        {
          "internalType": "address",
          "name": "_reciever",
          "type": "address"
        },
        {
          "internalType": "string",
          "name": "_message",
          "type": "string"
        }
      ],
      "name": "sendMessage",
      "outputs": [],
      "stateMutability": "nonpayable",
      "type": "function"
    },
    {
      "inputs": [
        {
          "internalType": "address",
          "name": "",
          "type": "address"
        },
        {
          "internalType": "uint256",
          "name": "",
          "type": "uint256"
        }
      ],
      "name": "sentMessages",
      "outputs": [
        {
          "internalType": "bytes32",
          "name": "",
          "type": "bytes32"
        }
      ],
      "stateMutability": "view",
      "type": "function"
    }
  ],
  "bytecode": "0x60806040523480156200001157600080fd5b50604051620012e8380380620012e883398181016040528101906200003791906200029c565b620000826040518060400160405280600881526020017f66696e6973686564000000000000000000000000000000000000000000000000815250620000a260201b620005f01760201c565b80600090805190602001906200009a9291906200016e565b5050620004f2565b6200014281604051602401620000b991906200032e565b6040516020818303038152906040527f41304fac000000000000000000000000000000000000000000000000000000007bffffffffffffffffffffffffffffffffffffffffffffffffffffffff19166020820180517bffffffffffffffffffffffffffffffffffffffffffffffffffffffff83818316178352505050506200014560201b60201c565b50565b60008151905060006a636f6e736f6c652e6c6f679050602083016000808483855afa5050505050565b8280546200017c9062000403565b90600052602060002090601f016020900481019282620001a05760008555620001ec565b82601f10620001bb57805160ff1916838001178555620001ec565b82800160010185558215620001ec579182015b82811115620001eb578251825591602001919060010190620001ce565b5b509050620001fb9190620001ff565b5090565b5b808211156200021a57600081600090555060010162000200565b5090565b6000620002356200022f846200037b565b62000352565b905082815260208101848484011115620002545762000253620004d2565b5b62000261848285620003cd565b509392505050565b600082601f830112620002815762000280620004cd565b5b8151620002938482602086016200021e565b91505092915050565b600060208284031215620002b557620002b4620004dc565b5b600082015167ffffffffffffffff811115620002d657620002d5620004d7565b5b620002e48482850162000269565b91505092915050565b6000620002fa82620003b1565b620003068185620003bc565b935062000318818560208601620003cd565b6200032381620004e1565b840191505092915050565b600060208201905081810360008301526200034a8184620002ed565b905092915050565b60006200035e62000371565b90506200036c828262000439565b919050565b6000604051905090565b600067ffffffffffffffff8211156200039957620003986200049e565b5b620003a482620004e1565b9050602081019050919050565b600081519050919050565b600082825260208201905092915050565b60005b83811015620003ed578082015181840152602081019050620003d0565b83811115620003fd576000848401525b50505050565b600060028204905060018216806200041c57607f821691505b602082108114156200043357620004326200046f565b5b50919050565b6200044482620004e1565b810181811067ffffffffffffffff821117156200046657620004656200049e565b5b80604052505050565b7f4e487b7100000000000000000000000000000000000000000000000000000000600052602260045260246000fd5b7f4e487b7100000000000000000000000000000000000000000000000000000000600052604160045260246000fd5b600080fd5b600080fd5b600080fd5b600080fd5b6000601f19601f8301169050919050565b610de680620005026000396000f3fe608060405234801561001057600080fd5b50600436106100625760003560e01c80631a35e5c0146100675780632bbd59ca146100975780634e9a5c89146100ca578063d93d3884146100e8578063de6f24bb14610118578063e9f593f414610134575b600080fd5b610081600480360381019061007c9190610860565b610152565b60405161008e9190610acf565b60405180910390f35b6100b160048036038101906100ac91906108a0565b610183565b6040516100c19493929190610a61565b60405180910390f35b6100d261027b565b6040516100df9190610aad565b60405180910390f35b61010260048036038101906100fd9190610860565b610310565b60405161010f9190610acf565b60405180910390f35b610132600480360381019061012d9190610804565b610341565b005b61013c61055b565b6040516101499190610aad565b60405180910390f35b6002602052816000526040600020818154811061016e57600080fd5b90600052602060002001600091509150505481565b60016020528060005260406000206000915090508060000160009054906101000a900473ffffffffffffffffffffffffffffffffffffffff16908060010160009054906101000a900473ffffffffffffffffffffffffffffffffffffffff16908060020180546101f290610c4a565b80601f016020809104026020016040519081016040528092919081815260200182805461021e90610c4a565b801561026b5780601f106102405761010080835404028352916020019161026b565b820191906000526020600020905b81548152906001019060200180831161024e57829003601f168201915b5050505050908060030154905084565b6060600360003373ffffffffffffffffffffffffffffffffffffffff1673ffffffffffffffffffffffffffffffffffffffff16815260200190815260200160002080548060200260200160405190810160405280929190818152602001828054801561030657602002820191906000526020600020905b8154815260200190600101908083116102f2575b5050505050905090565b6003602052816000526040600020818154811061032c57600080fd5b90600052602060002001600091509150505481565b60003383834260405160200161035a9493929190610a17565b60405160208183030381529060405280519060200120905060405180608001604052803373ffffffffffffffffffffffffffffffffffffffff1681526020018473ffffffffffffffffffffffffffffffffffffffff168152602001838152602001428152506001600083815260200190815260200160002060008201518160000160006101000a81548173ffffffffffffffffffffffffffffffffffffffff021916908373ffffffffffffffffffffffffffffffffffffffff16021790555060208201518160010160006101000a81548173ffffffffffffffffffffffffffffffffffffffff021916908373ffffffffffffffffffffffffffffffffffffffff160217905550604082015181600201908051906020019061047c9291906106b2565b5060608201518160030155905050600260003373ffffffffffffffffffffffffffffffffffffffff1673ffffffffffffffffffffffffffffffffffffffff168152602001908152602001600020819080600181540180825580915050600190039060005260206000200160009091909190915055600360008473ffffffffffffffffffffffffffffffffffffffff1673ffffffffffffffffffffffffffffffffffffffff168152602001908152602001600020819080600181540180825580915050600190039060005260206000200160009091909190915055505050565b6060600260003373ffffffffffffffffffffffffffffffffffffffff1673ffffffffffffffffffffffffffffffffffffffff1681526020019081526020016000208054806020026020016040519081016040528092919081815260200182805480156105e657602002820191906000526020600020905b8154815260200190600101908083116105d2575b5050505050905090565b610686816040516024016106049190610aea565b6040516020818303038152906040527f41304fac000000000000000000000000000000000000000000000000000000007bffffffffffffffffffffffffffffffffffffffffffffffffffffffff19166020820180517bffffffffffffffffffffffffffffffffffffffffffffffffffffffff8381831617835250505050610689565b50565b60008151905060006a636f6e736f6c652e6c6f679050602083016000808483855afa5050505050565b8280546106be90610c4a565b90600052602060002090601f0160209004810192826106e05760008555610727565b82601f106106f957805160ff1916838001178555610727565b82800160010185558215610727579182015b8281111561072657825182559160200191906001019061070b565b5b5090506107349190610738565b5090565b5b80821115610751576000816000905550600101610739565b5090565b600061076861076384610b31565b610b0c565b90508281526020810184848401111561078457610783610d3e565b5b61078f848285610c08565b509392505050565b6000813590506107a681610d6b565b92915050565b6000813590506107bb81610d82565b92915050565b600082601f8301126107d6576107d5610d39565b5b81356107e6848260208601610755565b91505092915050565b6000813590506107fe81610d99565b92915050565b6000806040838503121561081b5761081a610d48565b5b600061082985828601610797565b925050602083013567ffffffffffffffff81111561084a57610849610d43565b5b610856858286016107c1565b9150509250929050565b6000806040838503121561087757610876610d48565b5b600061088585828601610797565b9250506020610896858286016107ef565b9150509250929050565b6000602082840312156108b6576108b5610d48565b5b60006108c4848285016107ac565b91505092915050565b60006108d98383610969565b60208301905092915050565b6108ee81610bc2565b82525050565b61090561090082610bc2565b610cad565b82525050565b600061091682610b72565b6109208185610b95565b935061092b83610b62565b8060005b8381101561095c57815161094388826108cd565b975061094e83610b88565b92505060018101905061092f565b5085935050505092915050565b61097281610bd4565b82525050565b61098181610bd4565b82525050565b600061099282610b7d565b61099c8185610ba6565b93506109ac818560208601610c17565b6109b581610d4d565b840191505092915050565b60006109cb82610b7d565b6109d58185610bb7565b93506109e5818560208601610c17565b80840191505092915050565b6109fa81610bfe565b82525050565b610a11610a0c82610bfe565b610cd1565b82525050565b6000610a2382876108f4565b601482019150610a3382866108f4565b601482019150610a4382856109c0565b9150610a4f8284610a00565b60208201915081905095945050505050565b6000608082019050610a7660008301876108e5565b610a8360208301866108e5565b8181036040830152610a958185610987565b9050610aa460608301846109f1565b95945050505050565b60006020820190508181036000830152610ac7818461090b565b905092915050565b6000602082019050610ae46000830184610978565b92915050565b60006020820190508181036000830152610b048184610987565b905092915050565b6000610b16610b27565b9050610b228282610c7c565b919050565b6000604051905090565b600067ffffffffffffffff821115610b4c57610b4b610d0a565b5b610b5582610d4d565b9050602081019050919050565b6000819050602082019050919050565b600081519050919050565b600081519050919050565b6000602082019050919050565b600082825260208201905092915050565b600082825260208201905092915050565b600081905092915050565b6000610bcd82610bde565b9050919050565b6000819050919050565b600073ffffffffffffffffffffffffffffffffffffffff82169050919050565b6000819050919050565b82818337600083830152505050565b60005b83811015610c35578082015181840152602081019050610c1a565b83811115610c44576000848401525b50505050565b60006002820490506001821680610c6257607f821691505b60208210811415610c7657610c75610cdb565b5b50919050565b610c8582610d4d565b810181811067ffffffffffffffff82111715610ca457610ca3610d0a565b5b80604052505050565b6000610cb882610cbf565b9050919050565b6000610cca82610d5e565b9050919050565b6000819050919050565b7f4e487b7100000000000000000000000000000000000000000000000000000000600052602260045260246000fd5b7f4e487b7100000000000000000000000000000000000000000000000000000000600052604160045260246000fd5b600080fd5b600080fd5b600080fd5b600080fd5b6000601f19601f8301169050919050565b60008160601b9050919050565b610d7481610bc2565b8114610d7f57600080fd5b50565b610d8b81610bd4565b8114610d9657600080fd5b50565b610da281610bfe565b8114610dad57600080fd5b5056fea2646970667358221220e1162ce8a4790637bac00a4ea11dd5bdcf6de99aa26a7423620eabaae0fa938f64736f6c63430008060033",
  "linkReferences": {},
  "deployedLinkReferences": {}
}